:060000000A128A11F02F24
:100CBE003F3406345B344F3466346D345F3407345E
:100CCE007F346F347E088A007F08820069260A12FC
:100CDE008A118000840A04087D0603190034FF0A75
:100CEE000319FE0A6D2EF401F501701C842E720894
:100CFE00F4070318F50A7308F50701300310F20D17
:100D0E00F30DFF3E031D852E01300310F10CF00C88
:100D1E00FF3E031D8C2E70087104031D7C2E75087A
:100D2E00F1007408F0000800F601F31FA52EF20979
:100D3E00F309F20A0319F30AF601F60AF11FAC2EB3
:100D4E00F009F109F00A0319F10A70087104031988
:100D5E00D92EF501F50AF11BC02E01300310F00D4E
:100D6E00F10DFF3E031DB52E0130F4007408F5079A
:100D7E00B22E71087302031DC62E70087202031C78
:100D8E00CE2E7008F2027108031CF303F302013039
:100D9E000310F10CF00CFF3E031DCF2E0130F502B7
:100DAE00031DC02E76080319E12EF209F309F20A8B
:100DBE000319F30A7308F1007208F0000800A1018C
:100DCE00F71FF02EF609F709F60A0319F70AA10123
:100DDE00A10AF91FFB2EF809F909F80A0319F90AF5
:100DEE000130FA007A08A106A201A3017608770461
:100DFE000319322FA001A00AF71B112F0130031087
:100E0E00F60DF70DFF3E031D062F0130FA007A088E
:100E1E00A007032F01300310A20DA30DFF3E031DEB
:100E2E00122F77087902031D1E2F76087802031CF5
:100E3E00272F7608F8027708031CF903F90222140B
:100E4E0001300310F70CF60CFF3E031D282F013066
:100E5E00A002031D112F210803193A2FA209A3097D
:100E6E00A20A0319A30A2308F7002208F6000800B5
:100E7E00283084003830A4000408A5000A30A600EB
:100E8E002408840083130008A700A40A2508840000
:100E9E0027088000A50AA60B472FEB308316850086
:100EAE00F03086008701880181138B018B178B151B
:100EBE000B10F0308312860080309F008E30831628
:100ECE009F008312B401B501831203133408283E28
:100EDE008400831300088700063083120313A600D4
:100EEE001330A500AD30A400A40B7B2FA50B7B2FD8
:100EFE00A60B7B2F013083120313B4070318B50A18
:100F0E000030B5073508803AFF0080307F02031DA0
:100F1E00922F0A303402031C6B2F831203131F14FB
:100F2E00823083120313A500DD30A400A40B9D2F85
:100F3E00A50B9D2F831203131F151F19A42F1E0817
:100F4E00B70083161E088312B600FF30F60003307A
:100F5E00F7003708F1003608F0003230F2000030AA
:100F6E00F3000A128A117A260A128A117108F90000
:100F7E007008F8000A128A11E6260A128A117708FA
:100F8E00B7007608B6000A30F6000030F7003708D2
:100F9E00F9003608F8000A128A11E6260A128A119A
:100FAE007608283E84008313000887000A30F0007C
:100FBE000030F1003708F3003608F2000A128A11E9
:100FCE009B260A128A117008283E840000088800A9
:100FDE00A12F83134230FD000630FE005F30FF006C
:100FEE00383084000A128A116D2683010A128A1182
:020FFE003F2F83
:02400E00393F38
:00000001FF
